{
    "_format": "hh-sol-artifact-1",
    "contractName": "PostTweet",
    "sourceName": "contracts/PostTweet.sol",
    "abi": [
        {
            "inputs": [
                {
                    "internalType": "address",
                    "name": "_followSystemAddress",
                    "type": "address"
                }
            ],
            "stateMutability": "nonpayable",
            "type": "constructor"
        },
        {
            "anonymous": false,
            "inputs": [
                {
                    "indexed": true,
                    "internalType": "uint256",
                    "name": "tweetId",
                    "type": "uint256"
                },
                {
                    "indexed": true,
                    "internalType": "address",
                    "name": "author",
                    "type": "address"
                },
                {
                    "indexed": false,
                    "internalType": "string",
                    "name": "authorID",
                    "type": "string"
                },
                {
                    "indexed": false,
                    "internalType": "string",
                    "name": "name",
                    "type": "string"
                },
                {
                    "indexed": false,
                    "internalType": "string",
                    "name": "avatar",
                    "type": "string"
                },
                {
                    "indexed": false,
                    "internalType": "string",
                    "name": "content",
                    "type": "string"
                },
                {
                    "indexed": false,
                    "internalType": "string",
                    "name": "mediaCID",
                    "type": "string"
                },
                {
                    "indexed": false,
                    "internalType": "uint256",
                    "name": "timestamp",
                    "type": "uint256"
                },
                {
                    "indexed": false,
                    "internalType": "bool",
                    "name": "isRepost",
                    "type": "bool"
                },
                {
                    "indexed": false,
                    "internalType": "bool",
                    "name": "isMutable",
                    "type": "bool"
                }
            ],
            "name": "TweetPosted",
            "type": "event"
        },
        {
            "inputs": [
                {
                    "internalType": "uint256",
                    "name": "",
                    "type": "uint256"
                }
            ],
            "name": "allTweets",
            "outputs": [
                {
                    "internalType": "uint256",
                    "name": "id",
                    "type": "uint256"
                },
                {
                    "internalType": "string",
                    "name": "name",
                    "type": "string"
                },
                {
                    "internalType": "address",
                    "name": "author",
                    "type": "address"
                },
                {
                    "internalType": "string",
                    "name": "authorID",
                    "type": "string"
                },
                {
                    "internalType": "string",
                    "name": "avatar",
                    "type": "string"
                },
                {
                    "internalType": "string",
                    "name": "content",
                    "type": "string"
                },
                {
                    "internalType": "string",
                    "name": "mediaCID",
                    "type": "string"
                },
                {
                    "internalType": "uint256",
                    "name": "timestamp",
                    "type": "uint256"
                },
                {
                    "internalType": "bool",
                    "name": "isRepost",
                    "type": "bool"
                },
                {
                    "internalType": "string",
                    "name": "reposter",
                    "type": "string"
                },
                {
                    "internalType": "string",
                    "name": "reposterID",
                    "type": "string"
                },
                {
                    "internalType": "string",
                    "name": "reposterAvatar",
                    "type": "string"
                },
                {
                    "internalType": "bool",
                    "name": "isMutable",
                    "type": "bool"
                }
            ],
            "stateMutability": "view",
            "type": "function"
        },
        {
            "inputs": [
                {
                    "internalType": "uint256",
                    "name": "tweetId",
                    "type": "uint256"
                }
            ],
            "name": "deleteTweet",
            "outputs": [],
            "stateMutability": "nonpayable",
            "type": "function"
        },
        {
            "inputs": [
                {
                    "internalType": "uint256",
                    "name": "tweetId",
                    "type": "uint256"
                },
                {
                    "internalType": "string",
                    "name": "_content",
                    "type": "string"
                },
                {
                    "internalType": "string",
                    "name": "_mediaCID",
                    "type": "string"
                }
            ],
            "name": "editTweet",
            "outputs": [],
            "stateMutability": "nonpayable",
            "type": "function"
        },
        {
            "inputs": [],
            "name": "followSystem",
            "outputs": [
                {
                    "internalType": "contract FollowSystem",
                    "name": "",
                    "type": "address"
                }
            ],
            "stateMutability": "view",
            "type": "function"
        },
        {
            "inputs": [],
            "name": "getAllTweets",
            "outputs": [
                {
                    "components": [
                        {
                            "internalType": "uint256",
                            "name": "id",
                            "type": "uint256"
                        },
                        {
                            "internalType": "string",
                            "name": "name",
                            "type": "string"
                        },
                        {
                            "internalType": "address",
                            "name": "author",
                            "type": "address"
                        },
                        {
                            "internalType": "string",
                            "name": "authorID",
                            "type": "string"
                        },
                        {
                            "internalType": "string",
                            "name": "avatar",
                            "type": "string"
                        },
                        {
                            "internalType": "string",
                            "name": "content",
                            "type": "string"
                        },
                        {
                            "internalType": "string",
                            "name": "mediaCID",
                            "type": "string"
                        },
                        {
                            "internalType": "uint256",
                            "name": "timestamp",
                            "type": "uint256"
                        },
                        {
                            "internalType": "bool",
                            "name": "isRepost",
                            "type": "bool"
                        },
                        {
                            "internalType": "string",
                            "name": "reposter",
                            "type": "string"
                        },
                        {
                            "internalType": "string",
                            "name": "reposterID",
                            "type": "string"
                        },
                        {
                            "internalType": "string",
                            "name": "reposterAvatar",
                            "type": "string"
                        },
                        {
                            "internalType": "bool",
                            "name": "isMutable",
                            "type": "bool"
                        }
                    ],
                    "internalType": "struct PostTweet.Tweet[]",
                    "name": "",
                    "type": "tuple[]"
                }
            ],
            "stateMutability": "view",
            "type": "function"
        },
        {
            "inputs": [
                {
                    "internalType": "address",
                    "name": "author",
                    "type": "address"
                },
                {
                    "internalType": "uint256",
                    "name": "tweetId",
                    "type": "uint256"
                }
            ],
            "name": "getTotalReposts",
            "outputs": [
                {
                    "internalType": "uint256",
                    "name": "",
                    "type": "uint256"
                }
            ],
            "stateMutability": "view",
            "type": "function"
        },
        {
            "inputs": [],
            "name": "getTweetsByFollowing",
            "outputs": [
                {
                    "components": [
                        {
                            "internalType": "uint256",
                            "name": "id",
                            "type": "uint256"
                        },
                        {
                            "internalType": "string",
                            "name": "name",
                            "type": "string"
                        },
                        {
                            "internalType": "address",
                            "name": "author",
                            "type": "address"
                        },
                        {
                            "internalType": "string",
                            "name": "authorID",
                            "type": "string"
                        },
                        {
                            "internalType": "string",
                            "name": "avatar",
                            "type": "string"
                        },
                        {
                            "internalType": "string",
                            "name": "content",
                            "type": "string"
                        },
                        {
                            "internalType": "string",
                            "name": "mediaCID",
                            "type": "string"
                        },
                        {
                            "internalType": "uint256",
                            "name": "timestamp",
                            "type": "uint256"
                        },
                        {
                            "internalType": "bool",
                            "name": "isRepost",
                            "type": "bool"
                        },
                        {
                            "internalType": "string",
                            "name": "reposter",
                            "type": "string"
                        },
                        {
                            "internalType": "string",
                            "name": "reposterID",
                            "type": "string"
                        },
                        {
                            "internalType": "string",
                            "name": "reposterAvatar",
                            "type": "string"
                        },
                        {
                            "internalType": "bool",
                            "name": "isMutable",
                            "type": "bool"
                        }
                    ],
                    "internalType": "struct PostTweet.Tweet[]",
                    "name": "",
                    "type": "tuple[]"
                }
            ],
            "stateMutability": "view",
            "type": "function"
        },
        {
            "inputs": [
                {
                    "internalType": "address",
                    "name": "_user",
                    "type": "address"
                }
            ],
            "name": "getTweetsByUser",
            "outputs": [
                {
                    "components": [
                        {
                            "internalType": "uint256",
                            "name": "id",
                            "type": "uint256"
                        },
                        {
                            "internalType": "string",
                            "name": "name",
                            "type": "string"
                        },
                        {
                            "internalType": "address",
                            "name": "author",
                            "type": "address"
                        },
                        {
                            "internalType": "string",
                            "name": "authorID",
                            "type": "string"
                        },
                        {
                            "internalType": "string",
                            "name": "avatar",
                            "type": "string"
                        },
                        {
                            "internalType": "string",
                            "name": "content",
                            "type": "string"
                        },
                        {
                            "internalType": "string",
                            "name": "mediaCID",
                            "type": "string"
                        },
                        {
                            "internalType": "uint256",
                            "name": "timestamp",
                            "type": "uint256"
                        },
                        {
                            "internalType": "bool",
                            "name": "isRepost",
                            "type": "bool"
                        },
                        {
                            "internalType": "string",
                            "name": "reposter",
                            "type": "string"
                        },
                        {
                            "internalType": "string",
                            "name": "reposterID",
                            "type": "string"
                        },
                        {
                            "internalType": "string",
                            "name": "reposterAvatar",
                            "type": "string"
                        },
                        {
                            "internalType": "bool",
                            "name": "isMutable",
                            "type": "bool"
                        }
                    ],
                    "internalType": "struct PostTweet.Tweet[]",
                    "name": "",
                    "type": "tuple[]"
                }
            ],
            "stateMutability": "view",
            "type": "function"
        },
        {
            "inputs": [
                {
                    "internalType": "address",
                    "name": "user",
                    "type": "address"
                },
                {
                    "internalType": "address",
                    "name": "author",
                    "type": "address"
                },
                {
                    "internalType": "uint256",
                    "name": "tweetId",
                    "type": "uint256"
                }
            ],
            "name": "hasUserReposted",
            "outputs": [
                {
                    "internalType": "bool",
                    "name": "",
                    "type": "bool"
                }
            ],
            "stateMutability": "view",
            "type": "function"
        },
        {
            "inputs": [
                {
                    "internalType": "string",
                    "name": "_name",
                    "type": "string"
                },
                {
                    "internalType": "string",
                    "name": "_authorID",
                    "type": "string"
                },
                {
                    "internalType": "string",
                    "name": "_avatar",
                    "type": "string"
                },
                {
                    "internalType": "string",
                    "name": "_content",
                    "type": "string"
                },
                {
                    "internalType": "string",
                    "name": "_mediaCID",
                    "type": "string"
                }
            ],
            "name": "postMutableTweet",
            "outputs": [],
            "stateMutability": "nonpayable",
            "type": "function"
        },
        {
            "inputs": [
                {
                    "internalType": "string",
                    "name": "_name",
                    "type": "string"
                },
                {
                    "internalType": "string",
                    "name": "_authorID",
                    "type": "string"
                },
                {
                    "internalType": "string",
                    "name": "_avatar",
                    "type": "string"
                },
                {
                    "internalType": "string",
                    "name": "_content",
                    "type": "string"
                },
                {
                    "internalType": "string",
                    "name": "_mediaCID",
                    "type": "string"
                }
            ],
            "name": "postTweet",
            "outputs": [],
            "stateMutability": "nonpayable",
            "type": "function"
        },
        {
            "inputs": [
                {
                    "internalType": "address",
                    "name": "",
                    "type": "address"
                },
                {
                    "internalType": "uint256",
                    "name": "",
                    "type": "uint256"
                }
            ],
            "name": "repostCount",
            "outputs": [
                {
                    "internalType": "uint256",
                    "name": "",
                    "type": "uint256"
                }
            ],
            "stateMutability": "view",
            "type": "function"
        },
        {
            "inputs": [
                {
                    "internalType": "uint256",
                    "name": "tweetId",
                    "type": "uint256"
                },
                {
                    "internalType": "string",
                    "name": "_name",
                    "type": "string"
                },
                {
                    "internalType": "string",
                    "name": "_authorID",
                    "type": "string"
                },
                {
                    "internalType": "string",
                    "name": "_avatar",
                    "type": "string"
                }
            ],
            "name": "repostTweet",
            "outputs": [],
            "stateMutability": "nonpayable",
            "type": "function"
        },
        {
            "inputs": [],
            "name": "tweetCounter",
            "outputs": [
                {
                    "internalType": "uint256",
                    "name": "",
                    "type": "uint256"
                }
            ],
            "stateMutability": "view",
            "type": "function"
        },
        {
            "inputs": [
                {
                    "internalType": "address",
                    "name": "",
                    "type": "address"
                },
                {
                    "internalType": "address",
                    "name": "",
                    "type": "address"
                },
                {
                    "internalType": "uint256",
                    "name": "",
                    "type": "uint256"
                }
            ],
            "name": "userReposts",
            "outputs": [
                {
                    "internalType": "bool",
                    "name": "",
                    "type": "bool"
                }
            ],
            "stateMutability": "view",
            "type": "function"
        },
        {
            "inputs": [
                {
                    "internalType": "address",
                    "name": "",
                    "type": "address"
                },
                {
                    "internalType": "uint256",
                    "name": "",
                    "type": "uint256"
                }
            ],
            "name": "userTweets",
            "outputs": [
                {
                    "internalType": "uint256",
                    "name": "id",
                    "type": "uint256"
                },
                {
                    "internalType": "string",
                    "name": "name",
                    "type": "string"
                },
                {
                    "internalType": "address",
                    "name": "author",
                    "type": "address"
                },
                {
                    "internalType": "string",
                    "name": "authorID",
                    "type": "string"
                },
                {
                    "internalType": "string",
                    "name": "avatar",
                    "type": "string"
                },
                {
                    "internalType": "string",
                    "name": "content",
                    "type": "string"
                },
                {
                    "internalType": "string",
                    "name": "mediaCID",
                    "type": "string"
                },
                {
                    "internalType": "uint256",
                    "name": "timestamp",
                    "type": "uint256"
                },
                {
                    "internalType": "bool",
                    "name": "isRepost",
                    "type": "bool"
                },
                {
                    "internalType": "string",
                    "name": "reposter",
                    "type": "string"
                },
                {
                    "internalType": "string",
                    "name": "reposterID",
                    "type": "string"
                },
                {
                    "internalType": "string",
                    "name": "reposterAvatar",
                    "type": "string"
                },
                {
                    "internalType": "bool",
                    "name": "isMutable",
                    "type": "bool"
                }
            ],
            "stateMutability": "view",
            "type": "function"
        }
    ],
    "bytecode": "0x6080346200007a57601f62003e1538819003918201601f19168301916001600160401b038311848410176200007f578084926020946040528339810103126200007a57516001600160a01b038116908190036200007a57600080546001600160a01b031916919091179055604051613d7f9081620000968239f35b600080fd5b634e487b7160e01b600052604160045260246000fdfe6080604052600436101561001257600080fd5b60003560e01c806322933b181461220257806322b13ac8146121e457806327c1322514611f275780632e06f34714611eb85780635325613514611e4a5780635775912a14611d845780635ed44909146110645780636df86ccd146104a3578063707c54e514611cfa57806384ed4295146110ac578063867c276814611064578063c6613766146104f2578063c7e5d037146104a3578063e28350b7146103dc578063ea4aaa09146100fa5763f209f6d2146100cc57600080fd5b346100f55760003660031901126100f5576000546040516001600160a01b039091168152602090f35b600080fd5b346100f55760003660031901126100f5576000805460405163d8236dff60e01b815233600482015260249290916001600160a01b03919083908590829085165afa9182156103d057600092610334575b50600090815b83518310156101a257816101648486613d15565b51166000526002602052604060002054810180911161018d576101879092613acb565b91610150565b84634e487b7160e01b60005260116004526000fd5b83906101ad81613cfe565b906101bb6040519283612dac565b8082526101ca601f1991613cfe565b0160005b8181106102c45750506000916000925b81518410156102b257846101f28584613d15565b511660005260209160028352604060002080549061020f82613cfe565b9461021d6040519687612dac565b8286526000918252808220918187015b8482106102955750505050506000915b835183101561027f57610273610279916102578587613d15565b516102628289613d15565b5261026d8188613d15565b50613acb565b92613acb565b9161023d565b9592509361028d9150613acb565b9290936101de565b600d836001926102a487613c23565b81520194019101909261022d565b604051806102c08582613082565b0390f35b6020906040516102d381612d75565b600081526060839080828401526000604084015280808401528060808401528060a08401528060c0840152600060e08401526000610100840152806101208401528061014084015261016083015260006101808301528286010152016101ce565b9091503d806000833e6103478183612dac565b81019060209081818403126100f5578051906001600160401b0382116100f557019180601f840112156100f557825161037f81613cfe565b9361038d6040519586612dac565b818552838086019260051b8201019283116100f5578301905b8282106103b85750505050908361014a565b815186811681036100f55781529083019083016103a6565b6040513d6000823e3d90fd5b346100f55760203660031901126100f5576004356001548110156100f5576001600052600d602060002091020180546102c061041a60018401612ed2565b9260018060a01b036002820154169061043560038201612ed2565b61044160048301612ed2565b61044d60058401612ed2565b61045960068501612ed2565b60078501549060ff6008870154169261047460098801612ed2565b94610481600a8901612ed2565b9660ff600c610492600b8c01612ed2565b9a015416996040519d8e9d8e612fb8565b346100f5576104b1366131ce565b9160018060a01b03809116600052600460205260406000209116600052602052604060002090600052602052602060ff604060002054166040519015158152f35b346100f55760a03660031901126100f5576004356001600160401b0381116100f557610522903690600401612e13565b6024356001600160401b0381116100f557610541903690600401612e13565b906044356001600160401b0381116100f557610561903690600401612e13565b6064356001600160401b0381116100f557610580903690600401612e13565b6084356001600160401b0381116100f55761059f903690600401612e13565b916105ac82511515613203565b600554604051906105bc82612d75565b81528460208201523360408201528560608201528160808201528260a08201528360c08201524260e082015260006101008201526040516105fc81612d91565b6000815261012082015260405161061281612d91565b6000815261014082015260405161062881612d91565b600081526101608201526000610180820152600154600160401b811015610b5a578060016106599201600155612e47565b61104e578151815560208201518051906001600160401b038211610b5a5781906106866001850154612e98565b601f8111611019575b50602090601f8311600114610fa757600092610f9c575b50508160011b916000199060031b1c19161760018201555b60408201516002820180546001600160a01b0319166001600160a01b039290921691909117905560608201518051906001600160401b038211610b5a57819061070a6003850154612e98565b601f8111610f67575b50602090601f8311600114610ef557600092610eea575b50508160011b916000199060031b1c19161760038201555b60808201518051906001600160401b038211610b5a5781906107676004850154612e98565b601f8111610eb5575b50602090601f8311600114610e4357600092610e38575b50508160011b916000199060031b1c19161760048201555b60a08201518051906001600160401b038211610b5a5781906107c46005850154612e98565b601f8111610e03575b50602090601f8311600114610d9157600092610d86575b50508160011b916000199060031b1c19161760058201555b60c08201518051906001600160401b038211610b5a5781906108216006850154612e98565b601f8111610d51575b50602090601f8311600114610cdf57600092610cd4575b50508160011b916000199060031b1c19161760068201555b60e082015160078201556108836101008301511515600883019060ff801983541691151516179055565b6101208201518051906001600160401b038211610b5a5781906108a96009850154612e98565b601f8111610c9f575b50602090601f8311600114610c2d57600092610c22575b50508160011b916000199060031b1c19161760098201555b6101408201518051906001600160401b038211610b5a578190610907600a850154612e98565b601f8111610bed575b50602090601f8311600114610b7b57600092610b70575b50508160011b916000199060031b1c191617600a8201555b6101608201518051906001600160401b038211610b5a57610963600b840154612e98565b601f8111610b1a575b50602090601f8311600114610a7f57600080516020613d2a833981519152956109fa610a4f966109e7610a6f9d9b9787610a4198610a259f9d98610a3398600092610a74575b50508160011b916000199060031b1c191617600b8201555b600c610180840151151591019060ff801983541691151516179055565b3360005260026020526040600020613266565b600554998a98610a176040519b6101008d526101008d0190612f78565b908b820360208d0152612f78565b9089820360408b0152612f78565b908782036060890152612f78565b908582036080870152612f78565b924260a0820152600060c0820152600060e08201528033940390a3613acb565b600555005b0151905038806109b2565b90600b840160005260206000209160005b601f1985168110610b025750956109fa610a4f966109e7610a6f9d9b97600188610a259f9d98610a3398600080516020613d2a8339815191529e610a419c601f19811610610ae9575b505050811b01600b8201556109ca565b015160001960f88460031b161c19169055388080610ad9565b91926020600181928685015181550194019201610a90565b610b4a90600b85016000526020600020601f850160051c81019160208610610b50575b601f0160051c019061324f565b8961096c565b9091508190610b3d565b634e487b7160e01b600052604160045260246000fd5b015190508980610927565b9250600a84016000526020600020906000935b601f1984168510610bd2576001945083601f19811610610bb9575b505050811b01600a82015561093f565b015160001960f88460031b161c19169055898080610ba9565b81810151835560209485019460019093019290910190610b8e565b610c1c90600a86016000526020600020601f850160051c81019160208610610b5057601f0160051c019061324f565b8a610910565b0151905089806108c9565b9250600984016000526020600020906000935b601f1984168510610c84576001945083601f19811610610c6b575b505050811b0160098201556108e1565b015160001960f88460031b161c19169055898080610c5b565b81810151835560209485019460019093019290910190610c40565b610cce90600986016000526020600020601f850160051c81019160208610610b5057601f0160051c019061324f565b8a6108b2565b015190508980610841565b9250600684016000526020600020906000935b601f1984168510610d36576001945083601f19811610610d1d575b505050811b016006820155610859565b015160001960f88460031b161c19169055898080610d0d565b81810151835560209485019460019093019290910190610cf2565b610d8090600686016000526020600020601f850160051c81019160208610610b5057601f0160051c019061324f565b8a61082a565b0151905089806107e4565b9250600584016000526020600020906000935b601f1984168510610de8576001945083601f19811610610dcf575b505050811b0160058201556107fc565b015160001960f88460031b161c19169055898080610dbf565b81810151835560209485019460019093019290910190610da4565b610e3290600586016000526020600020601f850160051c81019160208610610b5057601f0160051c019061324f565b8a6107cd565b015190508980610787565b9250600484016000526020600020906000935b601f1984168510610e9a576001945083601f19811610610e81575b505050811b01600482015561079f565b015160001960f88460031b161c19169055898080610e71565b81810151835560209485019460019093019290910190610e56565b610ee490600486016000526020600020601f850160051c81019160208610610b5057601f0160051c019061324f565b8a610770565b01519050898061072a565b9250600384016000526020600020906000935b601f1984168510610f4c576001945083601f19811610610f33575b505050811b016003820155610742565b015160001960f88460031b161c19169055898080610f23565b81810151835560209485019460019093019290910190610f08565b610f9690600386016000526020600020601f850160051c81019160208610610b5057601f0160051c019061324f565b8a610713565b0151905089806106a6565b9250600184016000526020600020906000935b601f1984168510610ffe576001945083601f19811610610fe5575b505050811b0160018201556106be565b015160001960f88460031b161c19169055898080610fd5565b81810151835560209485019460019093019290910190610fba565b61104890600186016000526020600020601f850160051c81019160208610610b5057601f0160051c019061324f565b8a61068f565b634e487b7160e01b600052600060045260246000fd5b346100f55760403660031901126100f5576001600160a01b03611085612e31565b16600052600360205260406000206024356000526020526020604060002054604051908152f35b346100f55760803660031901126100f557602480356001600160401b0381116100f5576110dd903690600401612d48565b906044356001600160401b0381116100f5576110fd903690600401612d48565b906064356001600160401b0381116100f55761111d903690600401612d48565b91909260055494856004351015611cc35761114261113c600435612e47565b50613c23565b96336000526004602052604060002060018060a01b0360408a015116600052602052604060002060043560005260205260ff60406000205416611c71576020880151606089015160808a015160a08b01519160c08c0151936040519b6111a78d612d75565b8c5260208c01523360408c015260608b015260808a015260a089015260c08801524260e088015261010087016001905236906111e292612dcd565b61012086015236906111f392612dcd565b610140840152369061120492612dcd565b6101608201526000610180820152600154600160401b811015611c5c578060016112319201600155612e47565b611c47578151815560208201518051906001600160401b03821161175457819061125e6001850154612e98565b601f8111611c12575b50602090601f8311600114611ba057600092611b95575b50508160011b916000199060031b1c19161760018201555b60408201516002820180546001600160a01b0319166001600160a01b039290921691909117905560608201518051906001600160401b0382116117545781906112e26003850154612e98565b601f8111611b60575b50602090601f8311600114611aee57600092611ae3575b50508160011b916000199060031b1c19161760038201555b60808201518051906001600160401b03821161175457819061133f6004850154612e98565b601f8111611aae575b50602090601f8311600114611a3c57600092611a31575b50508160011b916000199060031b1c19161760048201555b60a08201518051906001600160401b03821161175457819061139c6005850154612e98565b601f81116119fc575b50602090601f831160011461198a5760009261197f575b50508160011b916000199060031b1c19161760058201555b60c08201518051906001600160401b0382116117545781906113f96006850154612e98565b601f811161194a575b50602090601f83116001146118d8576000926118cd575b50508160011b916000199060031b1c19161760068201555b60e0820151600782015561145b6101008301511515600883019060ff801983541691151516179055565b6101208201518051906001600160401b0382116117545781906114816009850154612e98565b601f8111611898575b50602090601f83116001146118265760009261181b575b50508160011b916000199060031b1c19161760098201555b6101408201518051906001600160401b0382116117545781906114df600a850154612e98565b601f81116117e6575b50602090601f831160011461177457600092611769575b50508160011b916000199060031b1c191617600a8201555b6101608201518051906001600160401b0382116117545761153b600b840154612e98565b601f811161171f575b50602090601f83116001146116a857918061159a9594926109e79460009261169d5750508160011b916000199060031b1c191617600b820155600c610180840151151591019060ff801983541691151516179055565b336000526004602052604060002060018060a01b0360408301511660005260205260406000206004356000526020526040600020600160ff1982541617905560018060a01b036040820151166000526003602052604060002060043560005260205260406000208054906001820180921161168857610a6f9350556005549081600080516020613d2a833981519152611668606084015193610a41602082015191610a336080820151610a2560c060a085015194015195610a176040519b6101008d526101008d0190612f78565b924260a0820152600160c0820152600060e08201528033940390a3613acb565b83634e487b7160e01b60005260116004526000fd5b0151905088806109b2565b90600b840160005260206000209160005b601f198516811061170757509261159a9594926001926109e79583601f198116106116ee57505050811b01600b8201556109ca565b015160001960f88460031b161c19169055888080610ad9565b919260206001819286850151815501940192016116b9565b61174e90600b85016000526020600020601f850160051c81019160208610610b5057601f0160051c019061324f565b86611544565b85634e487b7160e01b60005260416004526000fd5b0151905086806114ff565b9250600a84016000526020600020906000935b601f19841685106117cb576001945083601f198116106117b2575b505050811b01600a820155611517565b015160001960f88460031b161c191690558680806117a2565b81810151835560209485019460019093019290910190611787565b61181590600a86016000526020600020601f850160051c81019160208610610b5057601f0160051c019061324f565b876114e8565b0151905086806114a1565b9250600984016000526020600020906000935b601f198416851061187d576001945083601f19811610611864575b505050811b0160098201556114b9565b015160001960f88460031b161c19169055868080611854565b81810151835560209485019460019093019290910190611839565b6118c790600986016000526020600020601f850160051c81019160208610610b5057601f0160051c019061324f565b8761148a565b015190508680611419565b9250600684016000526020600020906000935b601f198416851061192f576001945083601f19811610611916575b505050811b016006820155611431565b015160001960f88460031b161c19169055868080611906565b818101518355602094850194600190930192909101906118eb565b61197990600686016000526020600020601f850160051c81019160208610610b5057601f0160051c019061324f565b87611402565b0151905086806113bc565b9250600584016000526020600020906000935b601f19841685106119e1576001945083601f198116106119c8575b505050811b0160058201556113d4565b015160001960f88460031b161c191690558680806119b8565b8181015183556020948501946001909301929091019061199d565b611a2b90600586016000526020600020601f850160051c81019160208610610b5057601f0160051c019061324f565b876113a5565b01519050868061135f565b9250600484016000526020600020906000935b601f1984168510611a93576001945083601f19811610611a7a575b505050811b016004820155611377565b015160001960f88460031b161c19169055868080611a6a565b81810151835560209485019460019093019290910190611a4f565b611add90600486016000526020600020601f850160051c81019160208610610b5057601f0160051c019061324f565b87611348565b015190508680611302565b9250600384016000526020600020906000935b601f1984168510611b45576001945083601f19811610611b2c575b505050811b01600382015561131a565b015160001960f88460031b161c19169055868080611b1c565b81810151835560209485019460019093019290910190611b01565b611b8f90600386016000526020600020601f850160051c81019160208610610b5057601f0160051c019061324f565b876112eb565b01519050868061127e565b9250600184016000526020600020906000935b601f1984168510611bf7576001945083601f19811610611bde575b505050811b016001820155611296565b015160001960f88460031b161c19169055868080611bce565b81810151835560209485019460019093019290910190611bb3565b611c4190600186016000526020600020601f850160051c81019160208610610b5057601f0160051c019061324f565b87611267565b83634e487b7160e01b60005260006004526000fd5b83634e487b7160e01b60005260416004526000fd5b60405162461bcd60e51b8152602060048201526025818b01527f596f75206861766520616c7265616479207265706f7374656420746869732074604482015264776565742160d81b6064820152608490fd5b60405162461bcd60e51b8152602060048201526010818a01526f125b9d985b1a59081d1dd9595d08125160821b6044820152606490fd5b346100f5576020806003193601126100f5576001600160a01b03611d1c612e31565b166000526002815260406000208054611d3481613cfe565b91611d426040519384612dac565b8183526000908152838120938084015b838310611d6757604051806102c08782613082565b600d82600192611d7689613c23565b815201960192019194611d52565b346100f55760203660031901126100f557600435611da181612e47565b5060028101546001600160a01b03163303611df457611df291611dcd60ff600c611dd994015416613b11565b611ddf611dd982612e47565b90613ba0565b3360005260026020526040600020612e7c565b005b60405162461bcd60e51b815260206004820152602860248201527f4f6e6c792074686520617574686f72206f6620746869732074776565742063616044820152676e2064656c65746560c01b6064820152608490fd5b346100f55760003660031901126100f55760018054611e6881613cfe565b90611e766040519283612dac565b808252600083815260208082208185015b848410611e9c57604051806102c08882613082565b600d838892611eaa85613c23565b815201920193019290611e87565b346100f55760403660031901126100f557611ed1612e31565b6001600160a01b0390811660009081526002602052604090208054602435908110156100f557611f0091612e7c565b506102c0815491611f1360018201612ed2565b936002820154169061043560038201612ed2565b346100f55760603660031901126100f5576001600160401b036024358181116100f557611f58903690600401612e13565b906044358181116100f557611f71903690600401612e13565b90611f7d600435612e47565b5060028101546001600160a01b0316330361219057611fa260ff600c83015416613b11565b600581018451838111610b5a57611fb98254612e98565b95601f96878111612160575b506020908783116001146120f557600694939291600091836120ea575b50508160011b916000199060031b1c19161790555b01918051918211610b5a5761200c8354612e98565b8481116120b0575b5060209382116001146120505792819293600092612045575b5050600019600383901b1c191660019190911b179055005b01519050838061202d565b601f1982169383600052806000209160005b868110612098575083600195961061207f575b505050811b019055005b015160001960f88460031b161c19169055838080612075565b91926020600181928685015181550194019201612062565b6120db908460005260206000208680860160051c820192602087106120e1575b0160051c019061324f565b84612014565b925081926120d0565b015190508880611fe2565b90601f1983169184600052816000209260005b81811061214857509160019391856006989796941061212f575b505050811b019055611ff7565b015160001960f88460031b161c19169055888080612122565b92936020600181928786015181550195019301612108565b61218a908460005260206000208980860160051c820192602087106120e1570160051c019061324f565b87611fc5565b60405162461bcd60e51b815260206004820152602660248201527f4f6e6c792074686520617574686f72206f6620746869732074776565742063616044820152651b8819591a5d60d21b6064820152608490fd5b346100f55760003660031901126100f5576020600554604051908152f35b346100f55760a03660031901126100f5576004356001600160401b0381116100f557612232903690600401612d48565b906024356001600160401b0381116100f557612252903690600401612d48565b916044356001600160401b0381116100f557612272903690600401612d48565b906064356001600160401b0381116100f557612292903690600401612d48565b90916084356001600160401b0381116100f5576122b3903690600401612d48565b9490956122c1841515613203565b600554604051906122d182612d75565b81526122de368c84612dcd565b60208201523360408201526122f4368b8b612dcd565b6060820152612304368486612dcd565b6080820152612314368688612dcd565b60a082015261232436888a612dcd565b60c08201524260e0820152600061010082015260405161234381612d91565b6000815261012082015260405161235981612d91565b6000815261014082015260405161236f81612d91565b600081526101608201526001610180820181905254600160401b811015610b5a578060016123a09201600155612e47565b61104e578151815560208201518051906001600160401b038211610b5a5781906123cd6001850154612e98565b601f8111612d13575b50602090601f8311600114612ca157600092612c96575b50508160011b916000199060031b1c19161760018201555b60408201516002820180546001600160a01b0319166001600160a01b039290921691909117905560608201518051906001600160401b038211610b5a5781906124516003850154612e98565b601f8111612c61575b50602090601f8311600114612bef57600092612be4575b50508160011b916000199060031b1c19161760038201555b60808201518051906001600160401b038211610b5a5781906124ae6004850154612e98565b601f8111612baf575b50602090601f8311600114612b3d57600092612b32575b50508160011b916000199060031b1c19161760048201555b60a08201518051906001600160401b038211610b5a57819061250b6005850154612e98565b601f8111612afd575b50602090601f8311600114612a8b57600092612a80575b50508160011b916000199060031b1c19161760058201555b60c08201518051906001600160401b038211610b5a5781906125686006850154612e98565b601f8111612a4b575b50602090601f83116001146129d9576000926129ce575b50508160011b916000199060031b1c19161760068201555b60e082015160078201556125ca6101008301511515600883019060ff801983541691151516179055565b6101208201518051906001600160401b038211610b5a5781906125f06009850154612e98565b601f8111612999575b50602090601f83116001146129275760009261291c575b50508160011b916000199060031b1c19161760098201555b6101408201518051906001600160401b038211610b5a57819061264e600a850154612e98565b601f81116128e7575b50602090601f83116001146128755760009261286a575b50508160011b916000199060031b1c191617600a8201555b6101608201518051906001600160401b038211610b5a5781906126ac600b850154612e98565b601f8111612835575b50602090601f83116001146127c3576000926127b8575b50508160011b916000199060031b1c191617600b8201555b610180820151151590600c0190612706919060ff801983541691151516179055565b33600052600260205260406000209061271e91613266565b600554998a986040519a6101008c526101008c019061273c92613af0565b908a820360208c015261274e92613af0565b9088820360408a015261276092613af0565b90868203606088015261277292613af0565b90848203608086015261278492613af0565b4260a0840152600060c0840152600160e08401523392600080516020613d2a8339815191529181900390a3610a6f90613acb565b015190508e806126cc565b9250600b84016000526020600020906000935b601f198416851061281a576001945083601f19811610612801575b505050811b01600b8201556126e4565b015160001960f88460031b161c191690558e80806127f1565b818101518355602094850194600190930192909101906127d6565b61286490600b86016000526020600020601f850160051c81019160208610610b5057601f0160051c019061324f565b8f6126b5565b015190508e8061266e565b9250600a84016000526020600020906000935b601f19841685106128cc576001945083601f198116106128b3575b505050811b01600a820155612686565b015160001960f88460031b161c191690558e80806128a3565b81810151835560209485019460019093019290910190612888565b61291690600a86016000526020600020601f850160051c81019160208610610b5057601f0160051c019061324f565b8f612657565b015190508e80612610565b9250600984016000526020600020906000935b601f198416851061297e576001945083601f19811610612965575b505050811b016009820155612628565b015160001960f88460031b161c191690558e8080612955565b8181015183556020948501946001909301929091019061293a565b6129c890600986016000526020600020601f850160051c81019160208610610b5057601f0160051c019061324f565b8f6125f9565b015190508e80612588565b9250600684016000526020600020906000935b601f1984168510612a30576001945083601f19811610612a17575b505050811b0160068201556125a0565b015160001960f88460031b161c191690558e8080612a07565b818101518355602094850194600190930192909101906129ec565b612a7a90600686016000526020600020601f850160051c81019160208610610b5057601f0160051c019061324f565b8f612571565b015190508e8061252b565b9250600584016000526020600020906000935b601f1984168510612ae2576001945083601f19811610612ac9575b505050811b016005820155612543565b015160001960f88460031b161c191690558e8080612ab9565b81810151835560209485019460019093019290910190612a9e565b612b2c90600586016000526020600020601f850160051c81019160208610610b5057601f0160051c019061324f565b8f612514565b015190508e806124ce565b9250600484016000526020600020906000935b601f1984168510612b94576001945083601f19811610612b7b575b505050811b0160048201556124e6565b015160001960f88460031b161c191690558e8080612b6b565b81810151835560209485019460019093019290910190612b50565b612bde90600486016000526020600020601f850160051c81019160208610610b5057601f0160051c019061324f565b8f6124b7565b015190508e80612471565b9250600384016000526020600020906000935b601f1984168510612c46576001945083601f19811610612c2d575b505050811b016003820155612489565b015160001960f88460031b161c191690558e8080612c1d565b81810151835560209485019460019093019290910190612c02565b612c9090600386016000526020600020601f850160051c81019160208610610b5057601f0160051c019061324f565b8f61245a565b015190508e806123ed565b9250600184016000526020600020906000935b601f1984168510612cf8576001945083601f19811610612cdf575b505050811b016001820155612405565b015160001960f88460031b161c191690558e8080612ccf565b81810151835560209485019460019093019290910190612cb4565b612d4290600186016000526020600020601f850160051c81019160208610610b5057601f0160051c019061324f565b8f6123d6565b9181601f840112156100f5578235916001600160401b0383116100f557602083818601950101116100f557565b6101a081019081106001600160401b03821117610b5a57604052565b602081019081106001600160401b03821117610b5a57604052565b90601f801991011681019081106001600160401b03821117610b5a57604052565b9291926001600160401b038211610b5a5760405191612df6601f8201601f191660200184612dac565b8294818452818301116100f5578281602093846000960137010152565b9080601f830112156100f557816020612e2e93359101612dcd565b90565b600435906001600160a01b03821682036100f557565b600154811015612e66576001600052600d602060002091020190600090565b634e487b7160e01b600052603260045260246000fd5b8054821015612e6657600052600d602060002091020190600090565b90600182811c92168015612ec8575b6020831014612eb257565b634e487b7160e01b600052602260045260246000fd5b91607f1691612ea7565b9060405191826000825492612ee684612e98565b908184526001948581169081600014612f555750600114612f12575b5050612f1092500383612dac565b565b9093915060005260209081600020936000915b818310612f3d575050612f1093508201013880612f02565b85548884018501529485019487945091830191612f25565b915050612f1094506020925060ff191682840152151560051b8201013880612f02565b919082519283825260005b848110612fa4575050826000602080949584010152601f8019910116010190565b602081830181015184830182015201612f83565b9b98928c9d9e9d61305c9761302461306b9b986101809f9b9561307a9f999561303296612ff96130409a6130169489526101a08060208b0152890190612f78565b6001600160a01b0390921660408801528682036060880152612f78565b908482036080860152612f78565b9160a0818403910152612f78565b8c810360c08e015290612f78565b9260e08b015215156101008a01528882036101208a0152612f78565b90868203610140880152612f78565b90848203610160860152612f78565b931515910152565b602080820190808352835180925260409283810182858560051b8401019601946000925b8584106130b7575050505050505090565b909192939495968580600192603f198582030187528a5190815181526131b061319c61318861315d61314a6131376131248d6131018b8b01518c6101a080918d01528b0190612f78565b908d8060a01b03818c015116908a01526060808b0151908a8303908b0152612f78565b6080808a015190898303908a0152612f78565b60a0808901519088830390890152612f78565b60c0808801519087830390880152612f78565b60e0808701519086015261010080870151151590860152610120808701519086830390870152612f78565b610140808601519085830390860152612f78565b610160808501519084830390850152612f78565b916101808091015115159101529901940194019295949391906130a6565b60609060031901126100f5576001600160a01b039060043582811681036100f5579160243590811681036100f5579060443590565b1561320a57565b60405162461bcd60e51b815260206004820152601d60248201527f547765657420636f6e74656e742063616e6e6f7420626520656d7074790000006044820152606490fd5b81811061325a575050565b6000815560010161324f565b908154600160401b811015610b5a57613286906001938482018155612e7c565b92909261104e578151835580830160209182840151908151926001600160401b0393848111610b5a57806132ba8354612e98565b94601f95868111613a9d575b508790868311600114613a3a57600092613a2f575b5050600019600383901b1c191690831b1790555b60408501516002870180546001600160a01b0319166001600160a01b039290921691909117905560608501518051600393918489019190868211610b5a5781906133398454612e98565b858111613a01575b50889085831160011461399f57600092613994575b505060001982871b1c191690841b1790555b6004808801608088015180519087821161397f5781906133888454612e98565b8a878211613950575b505089908683116001146138ee576000926138e3575b505060001982881b1c191690851b1790555b60059586890160a08901518051908882116137005781906133da8454612e98565b8781116138b6575b50849087831160011461385457600092613849575b505060001982891b1c191690861b1790555b6006890160c08901518051908882116137005781906134288454612e98565b87811161381c575b5084908783116001146137ba576000926137af575b505060001982891b1c191690861b1790555b60e088015160078a0155613481610100890151151560088b019060ff801983541691151516179055565b600989016101208901518051908882116137005781906134a18454612e98565b878111613782575b50849087831160011461372057600092613715575b505060001982891b1c191690861b1790555b600a89016101408901518051908882116137005781906134f08454612e98565b8781116136d3575b50849087831160011461367157600092613666575b505060001982891b1c191690861b1790555b600b890196610160890151928351978811613651575061353f8854612e98565b848111613619575b5050809286116001146135a1575093612f1097969381600c9794819461018098600095613596575b50501b92600019911b1c19161790555b0151151591019060ff801983541691151516179055565b01519350388061356f565b9294939190601f1985168760005284600020946000905b828210613602575050928592600c989592612f109b9a976101809996106135e8575b50505050811b01905561357f565b01519060f884600019921b161c19169055388080806135da565b8089869882949787015181550197019401906135b8565b6136419189600052836000209086808b01821c830193868c10613648575b01901c019061324f565b3880613547565b93508293613637565b604190634e487b7160e01b6000525260246000fd5b01519050388061350d565b90889350601f1983169185600052866000209260005b888282106136bd57505084116136a5575b505050811b01905561351f565b0151600019838b1b60f8161c19169055388080613698565b8385015186558c97909501949384019301613687565b6136fa9085600052866000208d8a808701821c8301938a88106136485701901c019061324f565b386134f8565b604185634e487b7160e01b6000525260246000fd5b0151905038806134be565b90889350601f1983169185600052866000209260005b8882821061376c5750508411613754575b505050811b0190556134d0565b0151600019838b1b60f8161c19169055388080613747565b8385015186558c97909501949384019301613736565b6137a99085600052866000208d8a808701821c8301938a88106136485701901c019061324f565b386134a9565b015190503880613445565b90889350601f1983169185600052866000209260005b8882821061380657505084116137ee575b505050811b019055613457565b0151600019838b1b60f8161c191690553880806137e1565b8385015186558c979095019493840193016137d0565b6138439085600052866000208d8a808701821c8301938a88106136485701901c019061324f565b38613430565b0151905038806133f7565b90889350601f1983169185600052866000209260005b888282106138a05750508411613888575b505050811b019055613409565b0151600019838b1b60f8161c1916905538808061387b565b8385015186558c9790950194938401930161386a565b6138dd9085600052866000208d8a808701821c8301938a88106136485701901c019061324f565b386133e2565b0151905038806133a7565b90879350601f19831691856000528b6000209260005b8d82821061393a5750508411613922575b505050811b0190556133b9565b0151600019838a1b60f8161c19169055388080613915565b8385015186558b97909501949384019301613904565b613978918660005288826000209181870160051c83019387106120e1570160051c019061324f565b388a613391565b604184634e487b7160e01b6000525260246000fd5b015190503880613356565b90869350601f19831691856000528a6000209260005b8c8282106139eb57505084116139d3575b505050811b019055613368565b015160001983891b60f8161c191690553880806139c6565b8385015186558a979095019493840193016139b5565b613a2990856000528a6000208780860160051c8201928d87106120e1570160051c019061324f565b38613341565b0151905038806132db565b90859350601f1983169185600052896000209260005b8b828210613a875750508411613a6e575b505050811b0190556132ef565b015160001960f88460031b161c19169055388080613a61565b8385015186558997909501949384019301613a50565b613ac59085600052896000208880860160051c8201928c87106120e1570160051c019061324f565b386132c6565b6000198114613ada5760010190565b634e487b7160e01b600052601160045260246000fd5b908060209392818452848401376000828201840152601f01601f1916010190565b15613b1857565b60405162461bcd60e51b81526020600482015260146024820152735477656574206973206e6f74206d757461626c6560601b6044820152606490fd5b613b5e8154612e98565b9081613b68575050565b81601f60009311600114613b7a575055565b81835260208320613b9691601f0160051c81019060010161324f565b8160208120915555565b9061104e57600c816000809355613bb960018201613b54565b826002820155613bcb60038201613b54565b613bd760048201613b54565b613be360058201613b54565b613bef60068201613b54565b826007820155826008820155613c0760098201613b54565b613c13600a8201613b54565b613c1f600b8201613b54565b0155565b90604051613c3081612d75565b61018060ff600c839580548552613c4960018201612ed2565b602086015260028101546001600160a01b03166040860152613c6d60038201612ed2565b6060860152613c7e60048201612ed2565b6080860152613c8f60058201612ed2565b60a0860152613ca060068201612ed2565b60c0860152600781015460e0860152826008820154161515610100860152613cca60098201612ed2565b610120860152613cdc600a8201612ed2565b610140860152613cee600b8201612ed2565b6101608601520154161515910152565b6001600160401b038111610b5a5760051b60200190565b8051821015612e665760209160051b01019056fe2bc1d2dd52cb74c540fcbf20a7e4dd2b4998d9f7c47ccac3e42c74afa03e7075a26469706673582212202123f71bb16831885caf613f01aeabaeabada54e7f552f4b92d2fce60aaefcf564736f6c63430008110033",
    "linkReferences": {},
    "deployedLinkReferences": {}
}