{
    "_format": "hh-sol-artifact-1",
    "contractName": "PostInteractions",
    "sourceName": "contracts/PostInteractions.sol",
    "abi": [
        {
            "inputs": [
                {
                    "internalType": "address",
                    "name": "_postTweetAddress",
                    "type": "address"
                },
                {
                    "internalType": "uint256",
                    "name": "_initialCommentCounter",
                    "type": "uint256"
                }
            ],
            "stateMutability": "nonpayable",
            "type": "constructor"
        },
        {
            "anonymous": false,
            "inputs": [
                {
                    "indexed": true,
                    "internalType": "uint256",
                    "name": "commentId",
                    "type": "uint256"
                },
                {
                    "indexed": true,
                    "internalType": "address",
                    "name": "commenter",
                    "type": "address"
                },
                {
                    "indexed": true,
                    "internalType": "address",
                    "name": "author",
                    "type": "address"
                },
                {
                    "indexed": false,
                    "internalType": "uint256",
                    "name": "tweetId",
                    "type": "uint256"
                },
                {
                    "indexed": false,
                    "internalType": "string",
                    "name": "name",
                    "type": "string"
                },
                {
                    "indexed": false,
                    "internalType": "string",
                    "name": "commenterID",
                    "type": "string"
                },
                {
                    "indexed": false,
                    "internalType": "string",
                    "name": "avatar",
                    "type": "string"
                },
                {
                    "indexed": false,
                    "internalType": "string",
                    "name": "content",
                    "type": "string"
                },
                {
                    "indexed": false,
                    "internalType": "string",
                    "name": "mediaCID",
                    "type": "string"
                },
                {
                    "indexed": false,
                    "internalType": "uint256",
                    "name": "timestamp",
                    "type": "uint256"
                }
            ],
            "name": "CommentAdded",
            "type": "event"
        },
        {
            "anonymous": false,
            "inputs": [
                {
                    "indexed": true,
                    "internalType": "address",
                    "name": "user",
                    "type": "address"
                },
                {
                    "indexed": true,
                    "internalType": "address",
                    "name": "author",
                    "type": "address"
                },
                {
                    "indexed": true,
                    "internalType": "uint256",
                    "name": "tweetId",
                    "type": "uint256"
                }
            ],
            "name": "TweetBookmarked",
            "type": "event"
        },
        {
            "anonymous": false,
            "inputs": [
                {
                    "indexed": true,
                    "internalType": "address",
                    "name": "user",
                    "type": "address"
                },
                {
                    "indexed": true,
                    "internalType": "address",
                    "name": "author",
                    "type": "address"
                },
                {
                    "indexed": true,
                    "internalType": "uint256",
                    "name": "tweetId",
                    "type": "uint256"
                }
            ],
            "name": "TweetLiked",
            "type": "event"
        },
        {
            "anonymous": false,
            "inputs": [
                {
                    "indexed": true,
                    "internalType": "address",
                    "name": "user",
                    "type": "address"
                },
                {
                    "indexed": true,
                    "internalType": "address",
                    "name": "author",
                    "type": "address"
                },
                {
                    "indexed": true,
                    "internalType": "uint256",
                    "name": "tweetId",
                    "type": "uint256"
                }
            ],
            "name": "TweetUnbookmarked",
            "type": "event"
        },
        {
            "anonymous": false,
            "inputs": [
                {
                    "indexed": true,
                    "internalType": "address",
                    "name": "user",
                    "type": "address"
                },
                {
                    "indexed": true,
                    "internalType": "address",
                    "name": "author",
                    "type": "address"
                },
                {
                    "indexed": true,
                    "internalType": "uint256",
                    "name": "tweetId",
                    "type": "uint256"
                }
            ],
            "name": "TweetUnliked",
            "type": "event"
        },
        {
            "inputs": [
                {
                    "internalType": "address",
                    "name": "author",
                    "type": "address"
                },
                {
                    "internalType": "uint256",
                    "name": "tweetId",
                    "type": "uint256"
                },
                {
                    "internalType": "string",
                    "name": "_name",
                    "type": "string"
                },
                {
                    "internalType": "string",
                    "name": "_commenterID",
                    "type": "string"
                },
                {
                    "internalType": "string",
                    "name": "_avatar",
                    "type": "string"
                },
                {
                    "internalType": "string",
                    "name": "_content",
                    "type": "string"
                },
                {
                    "internalType": "string",
                    "name": "_mediaCID",
                    "type": "string"
                }
            ],
            "name": "addComment",
            "outputs": [],
            "stateMutability": "nonpayable",
            "type": "function"
        },
        {
            "inputs": [
                {
                    "internalType": "address",
                    "name": "",
                    "type": "address"
                },
                {
                    "internalType": "uint256",
                    "name": "",
                    "type": "uint256"
                }
            ],
            "name": "bookmarkCount",
            "outputs": [
                {
                    "internalType": "uint256",
                    "name": "",
                    "type": "uint256"
                }
            ],
            "stateMutability": "view",
            "type": "function"
        },
        {
            "inputs": [
                {
                    "internalType": "address",
                    "name": "author",
                    "type": "address"
                },
                {
                    "internalType": "uint256",
                    "name": "tweetId",
                    "type": "uint256"
                }
            ],
            "name": "bookmarkTweet",
            "outputs": [],
            "stateMutability": "nonpayable",
            "type": "function"
        },
        {
            "inputs": [
                {
                    "internalType": "address",
                    "name": "",
                    "type": "address"
                },
                {
                    "internalType": "address",
                    "name": "",
                    "type": "address"
                },
                {
                    "internalType": "uint256",
                    "name": "",
                    "type": "uint256"
                }
            ],
            "name": "bookmarks",
            "outputs": [
                {
                    "internalType": "bool",
                    "name": "",
                    "type": "bool"
                }
            ],
            "stateMutability": "view",
            "type": "function"
        },
        {
            "inputs": [],
            "name": "commentCounter",
            "outputs": [
                {
                    "internalType": "uint256",
                    "name": "",
                    "type": "uint256"
                }
            ],
            "stateMutability": "view",
            "type": "function"
        },
        {
            "inputs": [
                {
                    "internalType": "address",
                    "name": "",
                    "type": "address"
                },
                {
                    "internalType": "uint256",
                    "name": "",
                    "type": "uint256"
                },
                {
                    "internalType": "uint256",
                    "name": "",
                    "type": "uint256"
                }
            ],
            "name": "comments",
            "outputs": [
                {
                    "internalType": "uint256",
                    "name": "id",
                    "type": "uint256"
                },
                {
                    "internalType": "string",
                    "name": "name",
                    "type": "string"
                },
                {
                    "internalType": "address",
                    "name": "author",
                    "type": "address"
                },
                {
                    "internalType": "string",
                    "name": "authorID",
                    "type": "string"
                },
                {
                    "internalType": "string",
                    "name": "avatar",
                    "type": "string"
                },
                {
                    "internalType": "string",
                    "name": "content",
                    "type": "string"
                },
                {
                    "internalType": "string",
                    "name": "mediaCID",
                    "type": "string"
                },
                {
                    "internalType": "uint256",
                    "name": "timestamp",
                    "type": "uint256"
                }
            ],
            "stateMutability": "view",
            "type": "function"
        },
        {
            "inputs": [
                {
                    "internalType": "address",
                    "name": "author",
                    "type": "address"
                },
                {
                    "internalType": "uint256",
                    "name": "tweetId",
                    "type": "uint256"
                }
            ],
            "name": "getComments",
            "outputs": [
                {
                    "components": [
                        {
                            "internalType": "uint256",
                            "name": "id",
                            "type": "uint256"
                        },
                        {
                            "internalType": "string",
                            "name": "name",
                            "type": "string"
                        },
                        {
                            "internalType": "address",
                            "name": "author",
                            "type": "address"
                        },
                        {
                            "internalType": "string",
                            "name": "authorID",
                            "type": "string"
                        },
                        {
                            "internalType": "string",
                            "name": "avatar",
                            "type": "string"
                        },
                        {
                            "internalType": "string",
                            "name": "content",
                            "type": "string"
                        },
                        {
                            "internalType": "string",
                            "name": "mediaCID",
                            "type": "string"
                        },
                        {
                            "internalType": "uint256",
                            "name": "timestamp",
                            "type": "uint256"
                        }
                    ],
                    "internalType": "struct PostInteractions.Comment[]",
                    "name": "",
                    "type": "tuple[]"
                }
            ],
            "stateMutability": "view",
            "type": "function"
        },
        {
            "inputs": [
                {
                    "internalType": "address",
                    "name": "author",
                    "type": "address"
                },
                {
                    "internalType": "uint256",
                    "name": "tweetId",
                    "type": "uint256"
                }
            ],
            "name": "getTotalBookmarks",
            "outputs": [
                {
                    "internalType": "uint256",
                    "name": "",
                    "type": "uint256"
                }
            ],
            "stateMutability": "view",
            "type": "function"
        },
        {
            "inputs": [
                {
                    "internalType": "address",
                    "name": "author",
                    "type": "address"
                },
                {
                    "internalType": "uint256",
                    "name": "tweetId",
                    "type": "uint256"
                }
            ],
            "name": "getTotalComments",
            "outputs": [
                {
                    "internalType": "uint256",
                    "name": "",
                    "type": "uint256"
                }
            ],
            "stateMutability": "view",
            "type": "function"
        },
        {
            "inputs": [
                {
                    "internalType": "address",
                    "name": "author",
                    "type": "address"
                },
                {
                    "internalType": "uint256",
                    "name": "tweetId",
                    "type": "uint256"
                }
            ],
            "name": "getTotalLikes",
            "outputs": [
                {
                    "internalType": "uint256",
                    "name": "",
                    "type": "uint256"
                }
            ],
            "stateMutability": "view",
            "type": "function"
        },
        {
            "inputs": [
                {
                    "internalType": "address",
                    "name": "author",
                    "type": "address"
                },
                {
                    "internalType": "uint256",
                    "name": "tweetId",
                    "type": "uint256"
                }
            ],
            "name": "hasUserBookmarked",
            "outputs": [
                {
                    "internalType": "bool",
                    "name": "",
                    "type": "bool"
                }
            ],
            "stateMutability": "view",
            "type": "function"
        },
        {
            "inputs": [
                {
                    "internalType": "address",
                    "name": "author",
                    "type": "address"
                },
                {
                    "internalType": "uint256",
                    "name": "tweetId",
                    "type": "uint256"
                }
            ],
            "name": "hasUserCommented",
            "outputs": [
                {
                    "internalType": "bool",
                    "name": "",
                    "type": "bool"
                }
            ],
            "stateMutability": "view",
            "type": "function"
        },
        {
            "inputs": [
                {
                    "internalType": "address",
                    "name": "author",
                    "type": "address"
                },
                {
                    "internalType": "uint256",
                    "name": "tweetId",
                    "type": "uint256"
                }
            ],
            "name": "isLiked",
            "outputs": [
                {
                    "internalType": "bool",
                    "name": "",
                    "type": "bool"
                }
            ],
            "stateMutability": "view",
            "type": "function"
        },
        {
            "inputs": [
                {
                    "internalType": "address",
                    "name": "",
                    "type": "address"
                },
                {
                    "internalType": "uint256",
                    "name": "",
                    "type": "uint256"
                }
            ],
            "name": "likeCount",
            "outputs": [
                {
                    "internalType": "uint256",
                    "name": "",
                    "type": "uint256"
                }
            ],
            "stateMutability": "view",
            "type": "function"
        },
        {
            "inputs": [
                {
                    "internalType": "address",
                    "name": "author",
                    "type": "address"
                },
                {
                    "internalType": "uint256",
                    "name": "tweetId",
                    "type": "uint256"
                }
            ],
            "name": "likeTweet",
            "outputs": [],
            "stateMutability": "nonpayable",
            "type": "function"
        },
        {
            "inputs": [
                {
                    "internalType": "address",
                    "name": "",
                    "type": "address"
                },
                {
                    "internalType": "address",
                    "name": "",
                    "type": "address"
                },
                {
                    "internalType": "uint256",
                    "name": "",
                    "type": "uint256"
                }
            ],
            "name": "likes",
            "outputs": [
                {
                    "internalType": "bool",
                    "name": "",
                    "type": "bool"
                }
            ],
            "stateMutability": "view",
            "type": "function"
        },
        {
            "inputs": [],
            "name": "postTweet",
            "outputs": [
                {
                    "internalType": "contract PostTweet",
                    "name": "",
                    "type": "address"
                }
            ],
            "stateMutability": "view",
            "type": "function"
        },
        {
            "inputs": [
                {
                    "internalType": "address",
                    "name": "author",
                    "type": "address"
                },
                {
                    "internalType": "uint256",
                    "name": "tweetId",
                    "type": "uint256"
                }
            ],
            "name": "unbookmarkTweet",
            "outputs": [],
            "stateMutability": "nonpayable",
            "type": "function"
        },
        {
            "inputs": [
                {
                    "internalType": "address",
                    "name": "author",
                    "type": "address"
                },
                {
                    "internalType": "uint256",
                    "name": "tweetId",
                    "type": "uint256"
                }
            ],
            "name": "unlikeTweet",
            "outputs": [],
            "stateMutability": "nonpayable",
            "type": "function"
        }
    ],
    "bytecode": "0x60803461007c57601f6118a638819003918201601f19168301916001600160401b0383118484101761008157808492604094855283398101031261007c5780516001600160a01b038116919082900361007c5760200151600080546001600160a01b03191690921790915560065560405161180e90816100988239f35b600080fd5b634e487b7160e01b600052604160045260246000fdfe608080604052600436101561001357600080fd5b60003560e01c908163066e146e146113d6575080630ae9a33d14610b435780630ca5730f14610aea5780632aa91836146107ed578063346d971d14610a915780633d9b569f1461097d578063493f41d9146109545780636337821614610835578063787d8a8b146107ed57806390b9b681146107bc57806399e74f8f1461069d5780639d929fdc1461064e578063a749e29c146105ff578063b8c0a1ef146105e1578063c34ebeb7146104a7578063d5f658831461045f578063ddbe7afc14610417578063f3e6cb38146103025763fdbe1d6d146100f057600080fd5b346102fd5760403660031901126102fd576001600160a01b0380610112611419565b166000526005906020828152604060002060243560005281526040600020908154906001600160401b0382116102e757929390604051906101578582851b0183611519565b8082528482018094600052856000206000915b8383106102515750505050604051938085019181865251809252604082818701941b86010193926000965b8388106101a25786860387f35b90919293948380600192603f198a82030186528851908151815260e08061023a6102276102146102016101e289890151610100808c8b01528901906115e0565b8c60408a01511660408901526060808a015190898303908a01526115e0565b60808089015190888303908901526115e0565b60a08088015190878303908801526115e0565b60c08087015190868303908701526115e0565b930151910152970193019701969093929193610195565b60088860019260409b9a97989b51610268816114fd565b8554815261027785870161153a565b838201528b60028701541660408201526102936003870161153a565b60608201526102a46004870161153a565b60808201526102b48d870161153a565b60a08201526102c56006870161153a565b60c0820152600786015460e0820152815201920192019190979493969761016a565b634e487b7160e01b600052604160045260246000fd5b600080fd5b346102fd5760603660031901126102fd5761031b611419565b60443560018060a01b038092166000526005602052604060002060243560005260205260406000209081548110156102fd5761035691611491565b5080549061040d6103696001830161153a565b93600283015416916103ff6103806003830161153a565b936103f16103906004850161153a565b6103e361039f6005870161153a565b9360076103ae6006890161153a565b970154986103d06040519c8d9c8d5260208d61010091829101528d01906115e0565b9160408c01528a820360608c01526115e0565b9088820360808a01526115e0565b9086820360a08801526115e0565b9084820360c08601526115e0565b9060e08301520390f35b346102fd5760403660031901126102fd576001600160a01b03610438611419565b16600052600260205260406000206024356000526020526020604060002054604051908152f35b346102fd5760403660031901126102fd576001600160a01b03610480611419565b16600052600560205260406000206024356000526020526020604060002054604051908152f35b346102fd5760403660031901126102fd576104c0611419565b602435903360005260206003815260406000209160018060a01b031691826000528152604060002083600052815260ff6040600020541661058e573360005260038152604060002082600052815260406000208360005281526040600020600160ff19825416179055816000526004815260406000209083600052526040600020805490600182018092116105785755337fd93a3c52673de84e1644b97252a18ddcfc2d2614b5d7aaec1d72ab06976f5492600080a4005b634e487b7160e01b600052601160045260246000fd5b6084906040519062461bcd60e51b82526004820152602660248201527f596f75206861766520616c726561647920626f6f6b6d61726b65642074686973604482015265081d1dd9595d60d21b6064820152fd5b346102fd5760003660031901126102fd576020600654604051908152f35b346102fd5761060d3661145c565b9160018060a01b03809116600052600160205260406000209116600052602052604060002090600052602052602060ff604060002054166040519015158152f35b346102fd5761065c3661145c565b9160018060a01b03809116600052600360205260406000209116600052602052604060002090600052602052602060ff604060002054166040519015158152f35b346102fd5760403660031901126102fd576106b6611419565b602435903360005260206003815260406000209160018060a01b031691826000528152604060002083600052815260ff604060002054161561076d57336000526003815260406000208260005281526040600020836000528152604060002060ff19815416905581600052600481526040600020908360005252604060002080549060001982019182116105785755337fc858c875617f65d7e3e78c0af1ce5db981730781705941852c0ae933cd76440b600080a4005b6084906040519062461bcd60e51b82526004820152602260248201527f596f752068617665206e6f7420626f6f6b6d61726b6564207468697320747765604482015261195d60f21b6064820152fd5b346102fd5760403660031901126102fd5760206107e36107da611419565b60243590611696565b6040519015158152f35b346102fd5760403660031901126102fd576001600160a01b0361080e611419565b16600052600460205260406000206024356000526020526020604060002054604051908152f35b346102fd5760403660031901126102fd5761084e611419565b602435903360005260206001815260406000209160018060a01b031691826000528152604060002083600052815260ff60406000205416610906573360005260018152604060002082600052815260406000208360005281526040600020600160ff19825416179055816000526002815260406000209083600052526040600020805490600182018092116105785755337f7c4b06baee4c2050d672eef0084a1baaf8d938d7f9eddc476d9a89847171b537600080a4005b6084906040519062461bcd60e51b82526004820152602160248201527f596f75206861766520616c7265616479206c696b6564207468697320747765656044820152601d60fa1b6064820152fd5b346102fd5760003660031901126102fd576000546040516001600160a01b039091168152602090f35b346102fd5760403660031901126102fd57610996611419565b602435903360005260206001815260406000209160018060a01b031691826000528152604060002083600052815260ff6040600020541615610a4d57336000526001815260406000208260005281526040600020836000528152604060002060ff19815416905581600052600281526040600020908360005252604060002080549060001982019182116105785755337fb58ed4b89ca4d829a75de89912b2e43d4953c28753d53e5303767d2959380761600080a4005b6064906040519062461bcd60e51b82526004820152601e60248201527f596f752068617665206e6f74206c696b656420746869732074776565742e00006044820152fd5b346102fd5760403660031901126102fd57610aaa611419565b33600052600160205260406000209060018060a01b03166000526020526040600020602435600052602052602060ff604060002054166040519015158152f35b346102fd5760403660031901126102fd57610b03611419565b33600052600360205260406000209060018060a01b03166000526020526040600020602435600052602052602060ff604060002054166040519015158152f35b346102fd5760e03660031901126102fd57610b5c611419565b6044356001600160401b0381116102fd57610b7b90369060040161142f565b90916064356001600160401b0381116102fd57610b9c90369060040161142f565b93906084356001600160401b0381116102fd57610bbd90369060040161142f565b9060a4356001600160401b0381116102fd57610bdd90369060040161142f565b909160c4356001600160401b0381116102fd57610bfe90369060040161142f565b94909583156113975760065460405190610c17826114fd565b8152610c24368c8b611620565b6020820152336040820152610c3a368d84611620565b6060820152610c4a368486611620565b6080820152610c5a368688611620565b60a0820152610c6a36888a611620565b60c08201524260e08201526001600160a01b038a166000908152600560209081526040808320602435845290915290208054600160401b8110156102e757610cb791600182018155611491565b919091611381578051825560208101518051906001600160401b0382116102e7578190610ce760018601546114c3565b601f811161132e575b50602090601f83116001146112bc576000926112b1575b50508160011b916000199060031b1c19161760018301555b60408101516002830180546001600160a01b0319166001600160a01b039290921691909117905560608101518051906001600160401b0382116102e7578190610d6b60038601546114c3565b601f811161125e575b50602090601f83116001146111ec576000926111e1575b50508160011b916000199060031b1c19161760038301555b60808101518051906001600160401b0382116102e7578190610dc860048601546114c3565b601f811161118e575b50602090601f831160011461111c57600092611111575b50508160011b916000199060031b1c19161760048301555b60a08101518051906001600160401b0382116102e7578190610e2560058601546114c3565b601f81116110be575b50602090601f831160011461104c57600092611041575b50508160011b916000199060031b1c19161760058301555b60c08101518051906001600160401b0382116102e757610e8060068501546114c3565b601f8111610ffa575b50602090601f8311600114610f875760e093929160009183610f7c575b50508160011b916000199060031b1c19161760068401555b015190600701556006549a8b986040519b6024358d5260208d0160e0905260e08d0190610eea92611666565b908b820360408d0152610efc92611666565b9089820360608b0152610f0e92611666565b908782036080890152610f2092611666565b9085820360a0870152610f3292611666565b4260c08501526001600160a01b039092169233927fcde38bf70668e6f3eb2c791d01115ce7f81a42ebbbe75cc1414bbbc7907486a9919081900390a4610f7790611687565b600655005b015190503880610ea6565b906006850160005260206000209160005b601f1985168110610fe2575091839160019360e09695601f19811610610fc9575b505050811b016006840155610ebe565b015160001960f88460031b161c19169055388080610fb9565b91926020600181928685015181550194019201610f98565b600685016000526020600020601f840160051c81016020851061103a575b601f830160051c8201811061102e575050610e89565b60008155600101611018565b5080611018565b015190508f80610e45565b9250600585016000526020600020906000935b601f19841685106110a3576001945083601f1981161061108a575b505050811b016005830155610e5d565b015160001960f88460031b161c191690558f808061107a565b8181015183556020948501946001909301929091019061105f565b909150600585016000526020600020601f840160051c81016020851061110a575b90849392915b601f830160051c820181106110fb575050610e2e565b600081558594506001016110e5565b50806110df565b015190508f80610de8565b9250600485016000526020600020906000935b601f1984168510611173576001945083601f1981161061115a575b505050811b016004830155610e00565b015160001960f88460031b161c191690558f808061114a565b8181015183556020948501946001909301929091019061112f565b909150600485016000526020600020601f840160051c8101602085106111da575b90849392915b601f830160051c820181106111cb575050610dd1565b600081558594506001016111b5565b50806111af565b015190508f80610d8b565b9250600385016000526020600020906000935b601f1984168510611243576001945083601f1981161061122a575b505050811b016003830155610da3565b015160001960f88460031b161c191690558f808061121a565b818101518355602094850194600190930192909101906111ff565b909150600385016000526020600020601f840160051c8101602085106112aa575b90849392915b601f830160051c8201811061129b575050610d74565b60008155859450600101611285565b508061127f565b015190508f80610d07565b9250600185016000526020600020906000935b601f1984168510611313576001945083601f198116106112fa575b505050811b016001830155610d1f565b015160001960f88460031b161c191690558f80806112ea565b818101518355602094850194600190930192909101906112cf565b909150600185016000526020600020601f840160051c81016020851061137a575b90849392915b601f830160051c8201811061136b575050610cf0565b60008155859450600101611355565b508061134f565b634e487b7160e01b600052600060045260246000fd5b60405162461bcd60e51b8152602060048201526017602482015276436f6d6d656e742063616e6e6f7420626520656d70747960481b6044820152606490fd5b346102fd5760403660031901126102fd576020906001600160a01b036113fa611419565b1660005260028252604060002060243560005282526040600020548152f35b600435906001600160a01b03821682036102fd57565b9181601f840112156102fd578235916001600160401b0383116102fd57602083818601950101116102fd57565b60609060031901126102fd576001600160a01b039060043582811681036102fd579160243590811681036102fd579060443590565b80548210156114ad5760005260206000209060031b0190600090565b634e487b7160e01b600052603260045260246000fd5b90600182811c921680156114f3575b60208310146114dd57565b634e487b7160e01b600052602260045260246000fd5b91607f16916114d2565b61010081019081106001600160401b038211176102e757604052565b90601f801991011681019081106001600160401b038211176102e757604052565b906040519182600082549261154e846114c3565b9081845260019485811690816000146115bd575060011461157a575b505061157892500383611519565b565b9093915060005260209081600020936000915b8183106115a55750506115789350820101388061156a565b8554888401850152948501948794509183019161158d565b91505061157894506020925060ff191682840152151560051b820101388061156a565b919082519283825260005b84811061160c575050826000602080949584010152601f8019910116010190565b6020818301810151848301820152016115eb565b9291926001600160401b0382116102e75760405191611649601f8201601f191660200184611519565b8294818452818301116102fd578281602093846000960137010152565b908060209392818452848401376000828201840152601f01601f1916010190565b60001981146105785760010190565b9060018060a01b03806000931683526005916020838152604091828620908652815281852080546001600160401b0381116117c4578351916116dc8483891b0184611519565b81835287528287208790848085015b848410611738575050505050855b815181101561172f5733858585848a1b86010151015116146117235761171e90611687565b6116f9565b50505050505050600190565b50505050505090565b6001916008918951611749816114fd565b8554815261175885870161153a565b838201528b6002870154168b8201526117736003870161153a565b60608201526117846004870161153a565b60808201526117948d870161153a565b60a08201526117a56006870161153a565b60c0820152600786015460e082015281520192019201919085906116eb565b634e487b7160e01b87526041600452602487fdfea2646970667358221220c1f02ba21fc000799a363138f609db3228317c409d7d14be05bd232b974d3cf564736f6c63430008110033",
    "linkReferences": {},
    "deployedLinkReferences": {}
}